:020000040800F2
:1000000008410020810200088B1200085F120008DE
:10001000891200085D100008DD1E000800000000C5
:100020000000000000000000000000001D19000892
:100030005F10000800000000E5150008451A0008E0
:10004000ED1E00089B0200089B0200089B020008AE
:100050009B0200089B0200089B0200089B0200080C
:100060009B0200089B0200089B0200089B020008FC
:100070009B0200089B0200089B0200089B020008EC
:100080009B0200089B0200089B0200089B020008DC
:100090009B0200089B0200089B0200089B020008CC
:1000A0009B0200089B0200089B0200089B020008BC
:1000B000991A00089B0200089B0200089B02000896
:1000C0009B0200089B0200089B0200089B0200089C
:1000D0009B0200083D1D00089B0200089B020008CF
:1000E0009B0200089B0200089B0200089B0200087C
:1000F0009B0200089B0200089B0200089B0200086C
:100100009B0200089B0200089B0200089B0200085B
:100110009B0200089B0200089B0200089B0200084B
:100120009B0200089B0200089B0200089B0200083B
:1001300000F002F800F07BF80AA090E8000C82447E
:100140008344AAF10107DA4501D100F070F8AFF25B
:10015000090EBAE80F0013F0010F18BFFB1A43F0A5
:10016000010318472CA000004CA0000010F8013B30
:100170000A4413F0030408BF10F8014B1D1108BF17
:1001800010F8015B641E05D010F8016B641E01F8C5
:10019000016BF9D1002D15D010F8014B03F00C03C1
:1001A0000C2BA1EB04040ABF10F8013BA4EB831451
:1001B000A4EB032405F1010314F8016B5B1E01F8A5
:1001C000016BF9D5914238BF10F8013BD1D370478C
:1001D0000023002400250026103A28BF78C1FBD850
:1001E000520728BF30C148BF0B607047642900F038
:1001F0005581752900F05281632900F0D684732956
:1002000000F0DB84002070471FB59DE8030000F07C
:100210000BFC00F066FA00F0C5FD04000020002190
:1002200007F02CFC401C60601FBD10B510BD00F035
:1002300093FD1146FFF7E8FF05F0CAFA00F0C4FD90
:1002400003B4FFF7F2FF03BC02F001FA0B49D1F847
:1002500000C04A685CF8043B1068184442F8040B7C
:100260008C4528BFA1F1DC0C8A4228BFA1F1DC0239
:10027000C1F800C04A6020F000407047A030002064
:100280000948804709480047FEE7FEE7FEE7FEE72A
:10029000FEE7FEE7FEE7FEE7FEE7FEE70448054966
:1002A000054A064B70470000491A00083101000852
:1002B00008310020084100200839002008390020BA
:1002C000704770B5A0FB0140B4F1805170F100009F
:1002D00024BF002070BD204600F007F805001CBFB9
:1002E000214600F0C9FA284670BD70B5064600F0F8
:1002F0007BFB056806F10B0020F00704B4429CBFAD
:10030000002070BD2B466A68BAB11068A04210D3B5
:1003100004F1080188423CBF5068586007D3516817
:10032000101941601168091B016058601460101DAC
:1003300070BD13465268002AE7D12146284600F0D6
:100340005FFB0028DED170BD70B50446051F00F0CC
:100350004BFB0068002C14BF446870BD002C18BF14
:10036000AC423CBF20466468F8D301680A18AA4230
:1003700018BF456003D12A6805461144016028680A
:100380004119A1421CBF6C6070BD61686960216841
:100390000844286070BD00000FB4044910B503AADA
:1003A000029800F00FFC10BC5DF814FB242800201C
:1003B0000FB41CB5074B06AA7B446946009005980C
:1003C00000F0D1FB0020694600F0E0FB1CBC5DF8AA
:1003D00014FB0000D107000070B504468569006871
:1003E000C10601D5302600E02026C00707D070BD29
:1003F000D4E9012130469047206A401C20626D1EDE
:10040000F6D570BD70B5044685690078C00707D180
:1004100070BDD4E9012120209047206A401C206251
:100420006D1EF6D570BD09684A0501D540B270470A
:10043000C905FCD500B2704709684A0501D5C0B2AC
:100440007047C905FCD580B2704770B50C460546AB
:10045000012A05D02878800600D5EA69002302E049
:10046000012305E05B1C934202D2E05C0028F9D135
:10047000A869E618C01AA861286A184428622846A4
:10048000FFF7AAFF04E0D5E9012114F8010B90471A
:10049000B442F8D32846FFF7B5FF70BD2DE9F0410F
:1004A0000646002410687529314616A510D0FFF7BE
:1004B000BAFF002802DA404213A507E031688A0734
:1004C00001D512A502E0490704D511A5012401E0D8
:1004D000FFF7B2FF00210A2206F1240709E0B0FB72
:1004E000F2FCB0FBF2F302FB1C00303078541846EB
:1004F000491C0028F3D123462A463046BDE8F04186
:1005000000F0D3BA000000002D0000002B00000016
:10051000200000002DE9F05F894604464FF0000AF4
:10052000DFF874B1FB44C0F820A02046E16888479A
:10053000002874D0252806D0D4E901219047206AEC
:10054000401C2062F1E700265F462046E1688847AC
:100550002028054607DB312D05D2781910F8200C2C
:1005600008B10643F1E7B00701D526F00406C4F848
:100570001CA00027C4F818A02A2D09D0284602F094
:100580005FF838B304EB8708303DC8F8185019E01D
:1005900059F8041B204604EB87029161E168884703
:1005A000012F054618D1E069002820DA26F0200640
:1005B0001DE0D8F8180000EB800005EB4000303853
:1005C000C8F818002046E1688847054602F038F868
:1005D0000028EED1012F0AD02E2D08D12046E16847
:1005E00088477F1C0546022F46F02006C4DBA06921
:1005F000002803DA404246F00106A061F00701D06E
:1006000026F010066C2D0BD0682D09D04C2D39D05A
:100610006A2D35D0742D35D07A2D33D016E038E0E0
:10062000E1682F4620468847B842054609D16C2F1D
:1006300026D04FF48060E16806432046884705468F
:1006400004E06C2F1AD04FF4807006430DB3A5F16F
:100650004100192802D8203546F400664A4629464A
:10066000204626604E46FFF7C1FD80B101280BD021
:10067000F61D26F0070000F1080956E74020E4E7E0
:100680008020D8E70020D6E706F104094DE7284688
:1006900052E7206ABDE8F09F359B000070B5064622
:1006A00000F0A6F90468054630460A22002100F051
:1006B0009BFA2C6070BD00000B4910B5A1F17C02C3
:1006C0000A4CC2E93712372106E000EB104342F82A
:1006D0002130074B00FB03400B1EA1F10101F4DCAC
:1006E00010BD0120E8E7000040300020E119D66687
:1006F000CD0D010040EA0103024630B59B0710D141
:100700004FF0013400E008C208C91D1B9D4315EAE3
:10071000C41FF8D013F0FF0102F8011B0DD01B0A13
:10072000F8E711F8013B002B02F8013B05D011F866
:10073000013B002B02F8013BF3D130BD10B5431C47
:1007400002E010F8011B71B18107FAD14FF00132BC
:1007500002C88C1A8C4314EAC211F9D0C01A0A06D6
:1007600003D0C01E10BDC01A10BD0A0401D0801EE7
:1007700010BD0902FCD0401E10BD032A40F230809B
:1007800010F0030C00F0158011F8013BBCF1020FD2
:10079000624498BF11F801CB00F8013B38BF11F853
:1007A000013BA2F1040298BF00F801CB38BF00F86A
:1007B000013B11F0030300F02580083AC0F00880E7
:1007C00051F8043B083A51F804CBA0E80810F5E7CB
:1007D000121D5CBF51F8043B40F8043BAFF30080AE
:1007E000D20724BF11F8013B11F801CB48BF11F823
:1007F000012B24BF00F8013B00F801CB48BF00F8F3
:10080000012B704710B5203AC0F00B80B1E81850AA
:10081000203AA0E81850B1E81850A0E81850BFF4EA
:10082000F5AF5FEA027C24BFB1E81850A0E8185089
:1008300044BF18C918C0BDE810405FEA827C24BFDD
:1008400051F8043B40F8043B08BF7047D20728BF6B
:1008500031F8023B48BF11F8012B28BF20F8023BBA
:1008600048BF00F8012B704702F0FF0343EA032260
:1008700042EA024200F002B84FF000020429C0F040
:10088000128010F0030C00F01B80CCF1040CBCF1C2
:10089000020F18BF00F8012BA8BF20F8022BA1EB14
:1008A0000C0100F00DB85FEAC17C24BF00F8012BF9
:1008B00000F8012B48BF00F8012B70474FF00002F1
:1008C00000B5134694469646203922BFA0E80C5046
:1008D000A0E80C50B1F12001BFF4F7AF090728BF21
:1008E000A0E80C5048BF0CC05DF804EB890028BF9D
:1008F00040F8042B08BF704748BF20F8022B11F0C6
:10090000804F18BF00F8012B704710B5044610F057
:10091000030F08BF11F0030F40F015804FF0013EA8
:10092000121FC0F20E8051F8043BA3EB0E0C2CEA10
:10093000030C1CEACE1C08BF40F8043BF0D0A1F128
:10094000040102F10402521E08DB11F8013B002BE6
:1009500000F8013BF7D11146FFF78EFF204610BD8E
:100960004FF0013C50F8042B51F8043B9A4221D13E
:10097000A2EB0C03934313EACC1317D150F8042BCA
:1009800051F8043B9A4215D1A2EB0C03934313EAAE
:10099000CC130BD150F8042B51F8043B9A4209D1E7
:1009A000A2EB0C03934313EACC13DBD04FF000000F
:1009B000704700BFD01A01BAB1FA81F101F01801F5
:1009C00022FA01F0CB40C1F12001DBB2C0B2C01A63
:1009D0002CFA01F3D11A914311EAC311E6D1704701
:1009E000704770477047704700487047B03000202C
:1009F00000487047A8300020704770477047704724
:100A000038B504460A4600206946AFF30080002846
:100A100008BF38BD02460099204600F029F90120A0
:100A200038BD012000F091B9F8B5AFF3008005465C
:100A300000200C46102000BF0646A819A0420DD980
:100A4000324669460020AFF30080070008BF00F07F
:100A50007CF90098A04218BF0546C419FFF7C4FFEF
:100A600005600746F01D20F007004619284600F0F3
:100A70000AF8B44208BFF8BDA21B31463868BDE889
:100A8000F84000F0F5B800210160C0E9011070479E
:100A90001020704710B5FFF7ABFF006810BD10B510
:100AA0000446FFF7A5FF046010BD2DE9F0470D4691
:100AB00099469246044600F124080168880604D548
:100AC000E06921F01001216000E00120A84201DD71
:100AD000471B00E00027A1697A1902EB0900081AF8
:100AE000A0612078C00602D42046FFF775FC0026DE
:100AF00008E0D4E901211AF806009047206A401C5A
:100B0000761C20624E45F4DB2078C0060AD52046CC
:100B1000FFF762FC06E0D4E9012130209047206A0B
:100B2000401C2062381EA7F10107F4DC07E0D4E97D
:100B3000012118F805009047206A401C2062281EF9
:100B4000A5F10105F3DC2046FFF75CFC20780006E8
:100B500002D50220BDE8F0870120FBE701694A1CAD
:100B600002610878704700B58FB0CDE901310021EE
:100B7000059105497944CDE9031011466846FFF710
:100B8000C9FC0FB000BD0000E5FFFFFF0A6802F8D6
:100B9000010B0A60704710B5436913B1AFF30080D1
:100BA00001E0FFF752FC012010BD127800F1240192
:100BB0000A7000224A700122EDE711684FF0FF32FF
:100BC000E9E70000074B70B50D467B44FFF7CBFF0C
:100BD0000446284600F0B5F810B14FF0FF3070BD64
:100BE000204670BDE33600002DE9F04791460F46E0
:100BF00080460446002614F8015B2DB100F030F861
:100C00000068405DC007F6D12B2D02D02D2D18D0E5
:100C1000641E4A463946204600F044F827B1396838
:100C2000A14201D1C7F800804FF0020471050BD535
:100C30004042002803DDFFF7DBFE0460A007BDE8AB
:100C4000F08746F48066E4E70028F8DAFFF7D0FE84
:100C500004606FF00040F2E700487047A8300020C1
:100C600010B500F09FF8001D10BD00BF116E000010
:100C7000034640688C46002818BF88423CBF0346A4
:100C80004068F8D318681844884207D00CF1030074
:100C900020F00700001D411A521A0146081D0A6083
:100CA000FFF752BB2DE9F05F824615468B460027C1
:100CB0000AF10104B9460078302801D09DB113E053
:100CC00014F8010B0127782803D0582801D045B12A
:100CD0000AE00DB1102D07D1002714F8010B1025E3
:100CE00002E0082500E00A250026B0460EE005FBDC
:100CF000080005FB06F101271FFA80F801EB1046FA
:100D0000B6F5803F00D3B94614F8010B294600F030
:100D10004DF80028EBDABBF1000F05D00FB1641ECF
:100D200000E05446CBF80040B9F1000F06D0FFF7C1
:100D30005FFE02210160C81EBDE8F09F48EA064040
:100D4000FAE7007B00F08000704710B500F04AF829
:100D5000BDE8104000F041B87546FFF77DFFAE4694
:100D600005006946534620F00700854618B020B5B7
:100D7000FFF794FABDE820404FF000064FF000075F
:100D80004FF000084FF0000B21F00701AC46ACE833
:100D9000C009ACE8C009ACE8C009ACE8C0098D46A0
:100DA0007047000000487047C83000203A2800D241
:100DB000303820F02002412A01D3A2F137008842C6
:100DC00001D34FF0FF30704710B50446AFF30080F9
:100DD0002046BDE81040FFF733BA002801D001F0EB
:100DE00036BC704710B5012805D0002103A000F0E3
:100DF00021F8012010BD09A1F8E70000534947522E
:100E0000544D454D3A204F7574206F6620686561DA
:100E100070206D656D6F7279000000003A204865A2
:100E20006170206D656D6F727920636F727275707D
:100E30007465640070B505460C460A2000E06D1C20
:100E400001F007FC35B128780028F8D102E0641CD5
:100E500001F0FFFB14B120780028F8D1BDE8704004
:100E60000A2001F0F6BB0029816802D041F001019F
:100E700001E021F001018160704700000D4910B5CB
:100E8000884202D1012144150AE00B49884202D16F
:100E90000121041504E0094988420AD10121CC034B
:100EA000204600F0CFFB2046BDE81040002100F0B6
:100EB000C9BB10BD0024014000280140003C014096
:100EC000014600208968490700D501207047C06CA1
:100ED00080B270470246002012680A4200D001200A
:100EE0007047014600208968090700D50120704736
:100EF00010B542680E4B0C791A400B6842EA042286
:100F00001343436083680B4A1340D1E902422243F2
:100F10004C7943EA44031A438260C26A097C22F492
:100F20007002491EC9B242EA0151C16210BD0000FF
:100F3000FFFEF0FFFDF7F1FF70B5072409290AD97C
:100F4000C568A1F10A0606EB4606B440A543B340C6
:100F50001D43C56007E0056901EB4106B440A543A8
:100F6000B3401D4305611F23072A09D2446B521E5B
:100F700002EB820293409C4391400C43446370BD5A
:100F80000D2A09D2046BD21F02EB820293409C43CC
:100F900091400C43046370BDC46A0D3A02EB8202B7
:100FA00093409C4391400C43C46270BD816841F002
:100FB0000801816070470029816802D041F4A001D6
:100FC00001E021F4A00181607047816841F00401D3
:100FD0008160704730B587B001214FF4017000F097
:100FE00025FB4FF4004000F0FFFA4020ADF814005C
:100FF00000248DF8174005A9164800F0A3F8164DF7
:101000002846FFF73BFF4FF46020CDE902040120A2
:101010008DF804408DF8100000948DF80540694665
:101020002846FFF765FF01212846FFF71CFF2846E9
:10103000FFF7BCFF2C462046FFF753FF0028FAD1EC
:101040002046FFF7C2FF2046FFF73AFF0028FAD1FB
:1010500007B030BD0008014000240140FEE77047A2
:1010600070B505464FF43026304600F059F8042894
:1010700011D1094C206940F00200206165612069AE
:1010800040F040002061304600F04AF8216941F606
:10109000FD721140216170BD00200240084904200A
:1010A000CA68D20701D001207047CA68520701D52B
:1010B00002207047C968C906FBD5032070470000AD
:1010C000002002400248016941F08001016170473F
:1010D00000200240F0B506464FF400570D46384652
:1010E00000F01EF804280CD1064C206940F00100E5
:1010F00020613580384600F013F82169BA1E11408E
:101100002161F0BD002002400348024941600349CB
:10111000416070472301674500200240AB89EFCD55
:1011200000B50346FFF7BAFF03E000BFFFF7B6FFC5
:101130005B1E012803D0002B00D1052000BD002B31
:10114000F4D1FAE7F0B5CA78002502F00F03D20611
:1011500001D58A7813430A784FF00F0E12F0FF0F73
:101160004FF001021CD004680F8802FA05F63740E0
:10117000B74211D14FEA850C0EFA0CF724EA0707A3
:1011800003FA0CF43C43CF78282F02D0482F02D02A
:1011900002E0466100E006616D1C082DE4D30460A6
:1011A0000C88FF2C1ED944685FF0000606F1080782
:1011B00002FA07F50F882F40AF420FD14FEA860C95
:1011C0000EFA0CF7BC4303FA0CF73C43CF78282FF8
:1011D00000D14561CF78482F00D10561761C082EDB
:1011E000E4D34460F0BD0246002092680A4200D079
:1011F00001207047416170470161704710B50B4C89
:101200000146002301222046FFF796FE01212046D9
:10121000FFF7D1FE02212046FFF75CFE0028F9D03F
:101220002046BDE81040FFF752BE000000240140F8
:101230002DE9F04100250E4607462C4608E03846C9
:10124000FFF7DCFF05440A2001F0A2FF641CE4B2B2
:10125000B442F4D3B5FBF6F080B2BDE8F081FEE70E
:1012600008B50121042000F0E1F948F28300ADF84F
:10127000000048208DF8030069460248FFF762FF2E
:1012800008BD000000080140FEE7704770B50F235D
:10129000C47801780122F4B1144C2468457804F430
:1012A000E064C4F5E064240AC4F10406E3408478F1
:1012B000B5401C402C4301F1E021230181F80034AA
:1012C000007800F01F018A404009800000F1E02012
:1012D000C0F8002170BD01F01F0082404809800065
:1012E00000F1E020C0F8802170BD00000CED00E0AE
:1012F0000249084302490860704700000000FA05EF
:101300000CED00E0054810B54FF480610068FFF770
:10131000B3FABDE8104004F02DBD00000028002005
:1013200010B510B1012803D006E00021A62001E08D
:101330000021A72000F020F90021BDE81040AF20D7
:1013400000F01AB910B500218D2000F015F9002128
:10135000102000F011F90021BDE81040AE2000F08F
:101360000BB9000010B500218D2000F005F9002117
:10137000142000F001F90021AF2000F0FDF803482F
:101380004078BDE81040FFF7CBBF000034280020B4
:1013900010B558B1012810D10021C02000F0ECF8A0
:1013A0000021A020BDE8104000F0E6B80021C820D0
:1013B00000F0E2F80021A120F4E710BDF8B501210A
:1013C000202000F033F90420ADF800001024594E1D
:1013D0008DF8034003258DF8025069463046FFF72B
:1013E000B1FE04213046FFF707FF0121082000F07D
:1013F0001DF94FF47876ADF800608DF803404E4C3F
:101400008DF8025069462046FFF79CFE3146204683
:10141000FFF7F2FE80212046FFF7ECFEC82001F026
:101420009DFE80212046FFF7E7FE24152046FEF7AB
:101430005CFF424908602146FFF71EFA0021AE20FA
:1014400000F09AF80021084600F096F800211020DC
:1014500000F092F80021402000F08EF80021812059
:1014600000F08AF80021CF2000F086F80021A120AA
:1014700000F082F80021C82000F07EF80021A620AC
:1014800000F07AF80021A82000F076F800213F2033
:1014900000F072F80021D32000F06EF80021084619
:1014A00000F06AF80021D52000F066F800218020C5
:1014B00000F062F80021D92000F05EF80021F12050
:1014C00000F05AF80021DA2000F056F8002112202E
:1014D00000F052F80021DB2000F04EF800214020FF
:1014E00000F04AF80021202000F046F800210220F8
:1014F00000F042F800218D2000F03EF80021142079
:1015000000F03AF80021A42000F036F80021A620CF
:1015100000F032F80021AF2000F02EF80021AF20BB
:1015200000F02AF8FFF7EEFE0021084600F008F868
:10153000F8BD000000140140000C0140002800200C
:1015400010B50446B031C8B2002100F015F81020E3
:1015500040EA1410002100F00FF804F00F00BDE87D
:10156000104040F00100002100F006B808B1FFF77C
:10157000F9BEFFF7E7BE00002DE9F041184E054621
:1015800000294FF04001304602D0FFF735FE01E060
:10159000FFF730FE20213046FFF72CFE00244FF4E9
:1015A00080784FF4007739463046FFF723FE28064F
:1015B0004146304602D5FFF71FFE01E0FFF71AFE55
:1015C00039463046FFF718FE6806641C050EE4B283
:1015D000082CE8D33046BDE8F0414021FFF70CBEAF
:1015E000000C014070470000034A516821F440415B
:1015F000014351607047000000100240044A002976
:10160000D16901D0014300E08143D16170470000FE
:1016100000100240044A0029116901D0014300E092
:10162000814311617047000000100240044A002904
:10163000916901D0014300E081439161704700004E
:1016400000100240044A0029D16801D0014300E0A3
:101650008143D160704700000010024030B51F493F
:101660004A6812F00C031E4A03D0042B01D0082B49
:1016700021D002604A680F231A4C03EA1212A35CBD
:101680000268DA4042604B68072505EA1323E35CF1
:1016900022FA03F383604B6805EAD323E35CDA4064
:1016A000C2604968032303EA9131231F595CB2FBEE
:1016B000F1F1016130BD4A684B6802F470124FF0DD
:1016C000020413F4803F04EB924202D04B689B0368
:1016D00001D5054B00E0024B5A43CAE70010024017
:1016E00000127A000D28002000093D0010B586B0D8
:1016F0000C226946204800F08DF89DF80800AA28C1
:1017000005D01EA0FEF748FE002006B010BD234CF9
:101710009DF8000020709DF8010000B1012060706C
:101720009DF8020000B10120A0709DF8030000B1F7
:101730000120E0709DF8040000B1012020719DF8A7
:10174000050000B1012060719DF80600A0719DF8B0
:101750000700E0729DF80900E0719DF80A006072D0
:101760009DF80B00A0720EA0FEF716FEA17A14A041
:10177000FEF712FE0120C8E700D000085265616440
:101780005F466C6173685F415050434F4E465F4403
:10179000617461206572726F720D0A003428002036
:1017A000526561645F466C6173685F415050434F9E
:1017B0004E465F44617461206F6B2121210D0A0048
:1017C000617070436F6E6669672E67616D65335F28
:1017D0006D61785F73636F7265203D2025640D0A2B
:1017E0000000000000B58DB016226946074800F0E1
:1017F00011F807489DF8001001709DF80110417024
:101800009DF8021081700DB000BD000000E00008DE
:101810002800002010B5002306E000BF30F8024B7E
:1018200021F813405B1C9BB29342F7D310BD00001C
:101830002DE9F05FA0F1006415468A468346B4F5B1
:10184000803F52D2FFF760FCA70AC4F34806C6F5F2
:101850000074A54200D82C46DFF894904FF0006049
:1018600000EB872080464FF400722149FFF7D2FF3A
:1018700000204FF6FF7106E0331839F813208A4232
:1018800003D1401C80B2A042F6D3A04225D24046EC
:10189000FFF7E6FB0020494607E000BF3AF81020BA
:1018A0008319401C21F8132080B2A042F6D31049BE
:1018B00040464FF4007200BF00F01CF8A54210D063
:1018C000281B0AEB440AA344002685B24FF4007497
:1018D0007F1CA542C2D82C46C0E722465146584636
:1018E000EAE7BDE8F05FFFF7EDBBBDE8F09F000061
:1018F000C42900202DE9F04116460F460546002474
:1019000008E000BF37F814102846FFF7E3FB641C1B
:10191000A4B2AD1CB442F5D3BDE8F081704700001D
:1019200000B5164885B00C2201788DF8001041787A
:101930008DF8011081788DF80210C1788DF80310B0
:1019400001798DF8041041798DF8051081798DF8B1
:101950000610C17A8DF80710AA218DF80810C179F8
:101960008DF80910417A8DF80A10807A8DF80B00F5
:1019700069460348FFF75CFF05B000BD342800202E
:1019800000D000080CB500212648019100910268A2
:1019900042F4803202604FF4A063026802F4003225
:1019A0000092019A521C0192009A12B9019A9A422D
:1019B000F3D10268920333D5012100911A490A68D4
:1019C00042F010020A600A6822F003020A600A6804
:1019D00042F002020A60416841604168416041682A
:1019E00041F480614160416821F47C1141604168AB
:1019F00041F4E8114160016841F0807101600168C3
:101A00008901FCD5416821F003014160416841F042
:101A1000020141604168C1F381010229FAD10CBD84
:101A200000910CBD00100240002002404FF0E02168
:101A30000428086903D020F004000861704740F0D2
:101A40000400FAE7704700000F4810B5016841F044
:101A50000101016041680D4A1140416001680C4A72
:101A600011400160016821F480210160416821F486
:101A7000FE0141604FF41F018160FFF783FF0549BC
:101A80004FF00060086010BD001002400000FFF839
:101A9000FFFFF6FE08ED00E010B501218C0720469F
:101AA00000F0EAF8002819D00D490878401CC2B2AD
:101AB0000A70642A0CD10B4A0120107000200870B3
:101AC0004878FF22401C48703221002003F0AEFB12
:101AD0002046BDE81040012100F009B810BD00000B
:101AE00029290020E4260020C94301827047C94308
:101AF000018270470029018802D041F0010101E014
:101B000021F00101018070474B4910B5884202D194
:101B10000121C41486E0B0F1804F09D047498842C2
:101B20000DD101210220FFF775FD0021022064E0A4
:101B300001210846FFF76EFD002101205DE04049CC
:101B4000884206D101210420FFF764FD0021042012
:101B500053E03C49884206D101210820FFF75AFD95
:101B60000021082049E03849884206D1012110208F
:101B7000FFF750FD002110203FE03449884206D194
:101B800001212020FFF746FD0021202035E03049CB
:101B9000884202D10121441444E02E49884202D1F6
:101BA0000121CC043EE02C49884202D101210C05E0
:101BB00038E02A49884202D101214C0532E0284907
:101BC000884206D101214020FFF724FD002140205A
:101BD00013E02449884206D101218020FFF71AFD35
:101BE0000021802009E0204988420AD18415012182
:101BF0002046FFF70FFD00212046BDE81040FFF70B
:101C000009BD1A49884202D101210C040AE0184991
:101C1000884202D101214C0404E0164988420AD1CD
:101C200001218C042046FFF70DFD2046BDE8104041
:101C30000021FFF707BD10BD002C0140000400404B
:101C400000080040000C004000100040001400405C
:101C500000340140004C014000500140005401405C
:101C600000180040001C00400020004000400140DF
:101C7000004401400048014002460020138A928936
:101C80000B4202EA010202D0002A00D00120704774
:101C9000002A828901D00A4300E08A43828170478A
:101CA00030B502881B4B1C4C98420DD0A0420BD083
:101CB000B0F1804F08D0194DA84205D0184DA84268
:101CC00002D0184DA84203D122F070054A882A4359
:101CD000154DA84206D0154DA84203D022F44075F8
:101CE000CA882A4302808A8882850A8802859842A7
:101CF0000AD0A04208D00E4A904205D00D4A904228
:101D000002D00D4A904201D1097A018601218182D7
:101D100030BD0000002C01400034014000040040B0
:101D200000080040000C004000100040001400407B
:101D300000400140004401400048014070B5164C8D
:101D400040F22551204600F037F800280ED02046FA
:101D500000F0C0F8C2B2114801880B0406D44C044C
:101D60004FF0000306D54B2A01D0038070BD41F42B
:101D700000410EE04F2A0AD0C1F30D04084D491C62
:101D800089B22A550180B1F5007FEED270BD41F4D1
:101D90008041018070BD00000038014022280020F1
:101DA000C42D00200029818902D041F4005101E0B6
:101DB00021F400518181704730B501F01F020124E8
:101DC0000025C1F3421304FA02F2012B0FD0022BBB
:101DD0000FD0838A4FEA11210088134204FA01F4DC
:101DE00000EA040001D000B10125284630BD8389F6
:101DF000F0E7038AEEE710B5C1F3421301F01F04C8
:101E00000121A140012B07D0022B07D01430002A5A
:101E1000026805D00A4304E00C30F8E71030F6E71A
:101E20008A43026010BD000030B50446008A85B0C8
:101E30000D464CF6FF710840E98801432182A189D3
:101E40004EF6F3100140A8882A8910436A890A4394
:101E50001043A081A08A4FF6FF410840A9890143A1
:101E6000A1826846FFF7FAFB1948844201D1039822
:101E700000E00298A189090400EBC00101EB001009
:101E8000296801D5490000E08900B0FBF1F0642227
:101E9000B0FBF2F109010B096FF018056B4300EB81
:101EA0008300A3891D044FF0320306D503EBC00065
:101EB000B0FBF2F000F0070005E003EB0010B0FB10
:101EC000F2F000F00F000843208105B030BD0000A3
:101ED000003801408088C0F308007047FEE700002A
:101EE0000149002008607047082C0040044810B5E4
:101EF000007800F007F8BDE81040FFF7F1BF0000E0
:101F000008280020024900F07F00086070470000A8
:101F1000002C00402DE9FC4F0026141A83465B1A62
:101F2000701E35468A46002C02DD4FF0010102E0AA
:101F300003D14FF00001894602E08146C4F100045C
:101F4000002B02DD4FF0010005E002D14FF0000050
:101F500001E0C3F100039C4201DD224600E01A4685
:101F60001C4F002102F1010EBF6800972DE000BF59
:101F70000BF0FF070AF0FF083F2F1AD8B8F13F0F08
:101F800017D84FEAD80CCDF804C008F0070C4FF072
:101F9000010808FA0CF8DDF804C007EB8C17DDF82F
:101FA00000C01CF807C04CEA080CDDF8008008F8F7
:101FB00007C026441D44964201DDB61ACB44954223
:101FC00001DDAD1A8244491C89B27145D0DDBDE8FE
:101FD000FC8F000014270020490050EAC12018BFE0
:101FE00004204A0D18BF40F0010040F2FF72B2EB2E
:101FF000515F08BF40F00200012808BF052070476C
:102000002DE9F74F144694B00021C4E90211159947
:10201000079121F00045C9498D4206DC1599C4E9B4
:10202000000117B00020BDE8F08FC549DFF814A308
:10203000A9423CDD0799C44E0029C44FC44A1599F2
:10204000534619DD06F0CEF8554506D0C14AC24BBD
:1020500006F0C8F8C4E900010AE04FF0D352BE4BC5
:1020600006F0C0F832463B4606F0BCF8C4E9000171
:1020700017B00120BDE8F08F05F048FD554506D0AA
:10208000B44AB54B05F042FDC4E900010AE04FF047
:10209000D352B14B05F03AFD32463B4605F036FDD2
:1020A000C4E9000117B04FF0FF30BDE8F08FAB4935
:1020B000A942159978DB21F0004183468846A84A59
:1020C000A84B05F085FF0022A74B05F01FFD05F08A
:1020D00025FF099005F051FF06460F469C4A5346DE
:1020E00005F076FF43465A4606F070F880468A4669
:1020F000984A994B3046394605F06AFF2A0D01256A
:102100000B924246534606F061F8032DC4E90001E4
:1021100039D00B98C1F30A51401A05EB451111391A
:10212000814230DA9148C346784400EB0510CDF87F
:102130000CA00C90D0E900233046394605F048FF4A
:1021400002460B46049106905846039906F04AF859
:1021500080468A4602460B465846039906F042F8E6
:10216000049B069A06F03EF883460C980391394684
:10217000D0E90223304605F02BFF5A46039B06F0B8
:1021800031F86D1CBDE707980028A2BF099817B069
:10219000BDE8F08F616881F000416160099817B077
:1021A0004042BDE8F08FFFE784461598C1F3130164
:1021B000C0F30A50A0F2F5304FEA601800F01F0695
:1021C000C6F12000139000200690079041F4801E75
:1021D00005206D4676B1664A08EB00017A4452F854
:1021E000213002EB8101B3404A68139922FA01F1D0
:1021F000194305E05F4908EB0002794451F82210C9
:10220000A1FB0E27A1FB0C131A449A4234BF0123F1
:10221000002303EB070A05EB8003D3E901B70F4462
:102220008F4234BF0121002193448B4411B1934567
:1022300002D903E0934501D2012100E00021C3E966
:1022400001B7514445F82010011EA0F10100C1DC86
:102250000298059F00F10050800F12900298DDE96E
:102260000356800005F089FE834628460D9105F04F
:102270009BFE6FF01D0206F0C0FBCDE90E0130465B
:1022800005F092FE6FF03D0206F0B7FB80468A46ED
:10229000384605F089FE6FF05D0206F0AEFB07469A
:1022A00042465346119105F031FCDDE90E2305F05D
:1022B0002DFC5A460D9B05F029FC00250E465A467A
:1022C00028460D9B05F08EFFDDE90E2305F08AFF01
:1022D0004246534605F086FF3A46119B05F076FFCD
:1022E000DFF898A0244A534605F072FE0746884658
:1022F000234A244B3146284605F06AFE3A464346B7
:1023000005F004FC074688464FF0A8425346314684
:10231000284605F05DFE3A46434605F0F7FB159A60
:1023200012F0004F04D0129A81F0004152421292F2
:10233000C4E90001129817B0BDE8F08FFB21E93F16
:102340007CD90240FB21F93F7370032E8A19A33B0D
:10235000000040543163621A61B4D03DFB21394121
:1023600083C8C96D305FE43F0000E03F747F000028
:10237000F07E0000D27E0000182D4454FB21F93D70
:102380003326A611460B113C2DE9FF4D21F00048E4
:1023900007460C46B8F1795F08DA05F0BFFD002862
:1023A00001BF0020324904B0BDE8F08D3A46234613
:1023B0001046194605F00CFE054602462D480E460D
:1023C0000B460621784400F05DF82A46334605F0B6
:1023D000FFFDDDE9022382468B463846214605F0A3
:1023E000F7FD04460F4652465B462846314605F047
:1023F000EFFD22463B4605F0F5FE07468A464FF0C4
:10240000FF322846314606F0F8FA1B4A90450ADAB0
:102410003A46534605F0E6FE04B00022BDE8F04D12
:10242000134B05F0D3BE154A4245A8BFA8F50015C9
:102430004FF00004B8BF124D22462B4605F0D2FEE5
:102440000646884622462B460020094905F0CAFE6A
:1024500004460D463A4653463046414605F0C2FE14
:1024600004B022462B46BDE8F04D05F0AFBE00009B
:102470000000F03FA87C00003333D33F0000E93F69
:102480000000D23F2DE9F0414F1E00EBC70104468A
:10249000D1E9000115461E4637F006020DD02A4646
:1024A000334605F095FD7F1E04EBC703D3E90023F7
:1024B00005F02CFB37F00602F1D1022F25D0042FB6
:1024C00013D0062F18BFBDE8F0812A46334605F029
:1024D0007FFDD4E90A2305F019FB2A46334605F0AF
:1024E00077FDD4E9082305F011FB2A46334605F0B1
:1024F0006FFDD4E9062305F009FB2A46334605F0B3
:1025000067FDD4E9042305F001FB2A46334605F0B4
:102510005FFDD4E9022305F0F9FA2A46334605F0B7
:1025200057FDD4E90023BDE8F04105F0EFBA000003
:102530002DE9FF4D054621F0004084B00C46B0F176
:10254000795F0BDA2846FFF747FD042808BF00F043
:102550006FF8284608B02146BDE8F08D2A460B46A4
:10256000104605F035FD06460F462A46234605F07F
:102570002FFD804626488A4632463B460521784450
:10258000FFF780FF83461098029160B3214A224BE7
:102590004046514605F01CFDCDE900015A46404633
:1025A0005146029B05F014FD82468846DDE906018E
:1025B0004FF0FF3206F021FA5246434605F012FE74
:1025C00032463B4605F004FDDDE9062305F00AFE30
:1025D000DDE9002305F006FE08B02A462346BDE8E3
:1025E000F04D05F0F3BD0B465A463046394605F02E
:1025F000EFFC084A084B05F089FA4246534605F0BD
:10260000E7FC08B02A462346BDE8F04D05F07EBA47
:10261000E67B0000495555555555C5BF012206F0CA
:10262000ECB9002213461046114605F01FBB00000E
:10263000024A0020110706F0E0B9000001FDFFFF8B
:1026400030380A2801D2012070470020704700204E
:10265000704700207047000070B50D46044603F037
:102660001BFB61782378401A0A49C2B201EB850549
:102670009A4206D203F010FB6178081A217888424A
:1026800004D10020C5F88001207070BD0120C5F87C
:10269000800170BD000021420448054B054A807846
:1026A0000549401EC0B203F09BBE0000FC2800207C
:1026B000AD2A0008199F00083C8B0008044A00EB73
:1026C0004000104402880A808078887070470000BB
:1026D000280000200146054800B54078FF2803D0B7
:1026E000FFF7ECFF012000BD002000BD140000201A
:1026F00010B5FFF777F8BDE8104002F05BB80000B6
:10270000122202490248FFF793B800002800002077
:1027100000E00008084A10B500EB400010440A88A9
:10272000028089788170122203490448FFF780F8FB
:10273000BDE8104002F03EB82800002000E000088C
:1027400070B51C4CE57802F03FFAE17800292FD0F3
:1027500050B38D4217D0184800F042FD0021606050
:10276000084600F047FBA0601449012000F042FB3E
:10277000E0600021022000F03DFB206103220221E5
:102780000F4804F01BFE02F067FD002810D12078EE
:10279000012801D0012000E000202070BDE8704039
:1027A000FF22962102F042BDBDE8704004F064BAF9
:1027B00070BD00001400002051330008796C00083F
:1027C000A69F000810B50B4C6078401EC0B2607028
:1027D0002178022906D108498979012902D108B94D
:1027E0000C20607001F0B0FF6178814200D9607008
:1027F00010BD0000FC00002034280020F8B50020A7
:10280000284D8DF8010028462978052240780C29AA
:102810003AD2DFE801F039060E10252B2B2B2B2B9B
:102820002B2B072408B1802000E02E208DF800001B
:1028300003E0122400E024240B221B480178407896
:10284000C900404201EBC0000830C6B23146204604
:1028500001F08AFB2878022818D0032816D01AE045
:102860002E2408B15020E1E74120DFE7491FC9B21B
:1028700001EB41033C2404EB4303DCB210B10B48F1
:10288000405CD3E72D20D1E70020F8BD6A7808A18D
:102890006846FDF78DFD334622460121684601F06A
:1028A0007FFBF1E7FC000020FC280020418B0008A2
:1028B000253032686875000010B50C4C6078401CFB
:1028C000607001F041FF6178884201D200206070A1
:1028D0002078022808D106488079012804D1607840
:1028E000002801D10120607010BD0000FC00002014
:1028F0003428002070B5064D0024204603F008FB64
:1029000045F82400641CE4B2052CF6D370BD000029
:10291000B02900200A7818B1382A05D9521E02E0E1
:10292000402A04D2521CD2B20A7001207047002003
:1029300070470000014800787047000028280020F8
:102940000348007A08B1002070470120704700005A
:1029500028280020014840787047000028280020DF
:10296000064A0123137009B1002300E0C02353700D
:1029700050601172002800D00047704728280020BE
:102980002DE9F0411C4C2078002833D02046617896
:102990004078267A431CC71C421D002508307EB1B2
:1029A000042901D2D8B208E0082901D2F8B204E023
:1029B000102901D2D0B200E0C0B240280FD210E0FE
:1029C000FB2901D9D8B208E0F72901D9F8B204E00F
:1029D000EF2901D9D0B200E0C0B20A2801D2257097
:1029E000002060702078002804D16068002801D0A1
:1029F00080476560BDE8F0812828002070B50C2074
:102A0000FDF773FC0E4C01680025216040682560CD
:102A10006560A560FEF76AFE08B900F01DF8207831
:102A20000C2800D92570E17806A0FDF7B5FC02F06E
:102A30003FF8E07902F032F8BDE8704000F0CABB20
:102A400034280020203220646973706C6179313839
:102A5000303D25640D0A00000B4810B501210170BE
:102A6000002242708170C270017141718271FF2237
:102A7000C272C171FEF754FF04A0FDF78DFCBDE8E2
:102A80001040FFF73DBE00003428002061707063E5
:102A90006F6E66696720726573657420616E64206D
:102AA000736176650D0A0000FEF73ABF054810B560
:102AB000006A08B1804701E002F0E0FCBDE8104088
:102AC00002F0DCBCFC28002000F024B8FEF782BA3B
:102AD0000249C87102484078887170470627002073
:102AE00029290020094810B5417809488279914286
:102AF00004D08171C17911B1491EC17110BD01208D
:102B0000FFF7E6FFBDE8104000F004B829290020D7
:102B10000627002010B505210620FEF789FB014994
:102B2000088110BD06270020014800897047000079
:102B3000062700200121FFF713BF0021FFF710BF78
:102B400010B5054B054A0649064803F0D1FB074975
:102B50000548886110BD000005510008A1700008FB
:102B60000156000859700008E1700008FC28002098
:102B7000002104E000F001021144C9B2400800281D
:102B8000F8D108467047000001490120C87070471D
:102B90009000002002490220887001207047000048
:102BA0007C00002010B50A4CA068FDF7CDFB6078D2
:102BB000FF2809D00021022003F0BEF901210548B9
:102BC000FFF7CEFE012010BD01F008FDFAE700007E
:102BD00070000020C5310008084810B5C078FF28F3
:102BE00009D00021022003F0A7F901210448FFF7D2
:102BF000B7FE012010BD01F02DFDFAE77C0000209A
:102C0000C5310008074810B5C068FF2807D000216B
:102C1000022003F091F901210348FFF7A1FE0120F2
:102C200010BD000090000020C531000810B5012142
:102C30000248FFF795FE012010BD0000C5310008D5
:102C400010B50021022003F077F904484078FEF720
:102C500067FB00F0B7FA012010BD00003428002007
:102C600010B50021022003F067F904484078FEF710
:102C700057FB00F0A7FA012010BD00003428002007
:102C800009494888B0F5FA7F0AD23222B0FBF2F245
:102C900002EBC20303EB021200EB4200323000E011
:102CA0000020488001207047F42600200949488808
:102CB000B0F5FA7F0AD23222B0FBF2F202EBC20385
:102CC00003EB021200EB4200323000E000204880AB
:102CD0000120704738270020024902200870002098
:102CE00070470000700000200348017881F0010166
:102CF00001700120704700009000002010B5044CC6
:102D00000020606002F0A8FEA060012010BD00005D
:102D1000D8260020024901200870002070470000DA
:102D20007000002010B50A4C2078012801D020B195
:102D300009E000202070014602E0012020700146D9
:102D4000042003F0F9F802F087FEA060012010BD16
:102D5000D826002001490120887070477C0000209F
:102D600010B5FEF77DFA60210848FDF7A7FD07487A
:102D70000749022241610749C16207494164BDE830
:102D800010400649032000F03FB800004028002012
:102D9000B89F0008C09F0008C89F0008212F0008A6
:102DA00010B504464079FFF7E3FE032801D8002060
:102DB00010BD034821684078401AF9D53C3010BD59
:102DC0002929002010B50446FFF7EAFF217C814243
:102DD0000AD80648064940784A78904204D048709C
:102DE000E068BDE81040004710BD00002929002020
:102DF0004C00002000EB4002024800EBC202906849
:102E0000916070474028002000EB4003024800EB2F
:102E1000C300C1600274704740280020024B9A63CF
:102E20001962986070470000402800200149086539
:102E3000704700004028002010B5044602F00CFE48
:102E4000064AC1B21078081AC0B2142805D311700E
:102E50002046BDE8104003F01DB810BD4C00002016
:102E600010B504F037FAFFF73DFE03F067F8FFF7FF
:102E7000E3FF02F017FA04F0BFFB03F02FFF03F0AB
:102E80005DF8002805D0FFF75BFCBDE8104000F0BE
:102E9000AFB910BD10B5FEF7D7FD4FF4A060FEF737
:102EA00027FA00F03DF94FF4165004F0C7FA04F089
:102EB00091FBFEF783FA02F0DBF901F083FEFFF7E6
:102EC00005FEFFF74DFF02F0CFFDFFF797FDFFF77F
:102ED0000FFC00F077F9054C6078FEF721FAE078F6
:102EE000FEF756FA02490120087010BD3428002070
:102EF000E4260020064A50781178C31D994202D377
:102F0000891FC8B202E0814200D208465070704763
:102F1000FC28002014210148FDF7D0BC082900201E
:102F20000A4810B5017961B100210171084908789A
:102F300048B100200870FEF719FB04F077FB002071
:102F400010BD0121F1E70120F4E700003428002042
:102F50005827002010B502F07FFD094CC0B26178FF
:102F6000411AC9B2C8290AD3607060687F22411C27
:102F7000FDF703FC01F09EFC616881F87F0010BD45
:102F80004027002010B58020FDF7AFF903494860C5
:102F9000BDE810408021FDF76FBC000040270020F5
:102FA0002DE9F05FDFF84CB1002259469BF8004054
:102FB0009BF803509BF8020049784FF0010928B1B3
:102FC0009BF8043058468BB1AD1F10E009B1E41CEA
:102FD00000E0E41EE4B2202C14D319B120248BF8B5
:102FE00002900FE000248BF805200BE00A35EDB2CB
:102FF000802D07D35BB1002501B142715FF0000164
:103000008BF80410E7080026DFF8EC8017E0802535
:1030100082700121F4E700BFD8F80000802100EBA6
:10302000C610FDF729FCD8F80000714200EBC11072
:10303000802100F56070FDF71FFC761CF6B2384663
:10304000BE42E9D314F007012DD0C001A0F2FF3237
:103050005242FF2606FA01F303F0FF0ACE4009FAB6
:1030600001F38027CF4003F0FF09D8F8001092B297
:10307000002300BF11F800C05B1C0CEA0A0C4CEAEC
:10308000090C01F800C011F802C0401C0CEA060C43
:103090004CEA070C01F802C0521EDBB280B292B2B9
:1030A000802BE7D31FE0F4B1C5F18000C4F14001EB
:1030B000C0F34600C1F3C40100EBC110D8F8001002
:1030C0004646084401222946FDF7CEFB202C0AD0B3
:1030D000FA0131687F201318401ECE5CC0B246F062
:1030E0000106CE54F7D28BF800408BF80350BDE8B0
:1030F000F09F0000680000200028002070B5074CF9
:103100004FF40075A06818B92846FDF7EEF8A060E6
:103110002946BDE87040FDF7AFBB00001427002032
:1031200010B56FF00400FEF781FC094809490068FA
:10313000B0FBF1F0C1B2084801EB41020170C2EBF3
:10314000C1114FF6FF7202EAC101418010BD0000BB
:103150000000002000127A001E2800200B49498838
:1031600048434FF0E021486100228A61086940F03D
:10317000010008610869C30701D0C003FAD50869D6
:1031800020F0010008618A61704700001E280020BD
:103190000B49097848434FF0E021486100228A61D9
:1031A000086940F0010008610869C30701D0C00345
:1031B000FAD5086920F0010008618A6170470000B3
:1031C0001E28002002488068002800D00047704771
:1031D0005C00002001498860704700005C0000200E
:1031E00002494A6848601046704700005C000020B1
:1031F00010B502F031FC0F4CC0B22178411AC9B2AF
:10320000142916D32070FFF7BBFB60680C3420B183
:10321000617909B9617831B98047607918B1FFF7F0
:10322000BFFE607908B9FFF785FBBDE8104000F0EC
:10323000A7BE10BD5C0000200A21B0FBF1F0704772
:10324000024902460320097802F03AB8FC2800201F
:1032500010B504460848C07800280CD0FFF76AFB78
:1032600018B1FFF76DFB002805D0002C03D0A44651
:10327000BDE81040604710BDFC28002010B50121BA
:10328000044801F03FFBFFF7A5FFFFF79BFF01207C
:1032900010BD0000157800080448017819B100211C
:1032A0000170012070470121FAE700000427002087
:1032B00010B50121054801F025FBFFF78BFF01F058
:1032C00003F8FFF77FFF012010BD000081760008A2
:1032D00010B50121064801F015FBFFF77BFFFFF752
:1032E00071FF022203490320FFF78EFD012010BD6C
:1032F000A55C0008212F000810B5064C80216068ED
:10330000FDF7BAFA207818B1401E2070012010BDD8
:103310000120FAE74027002010B50121044801F000
:10332000F1FAFFF757FFFFF74DFF012010BD000036
:103330004176000810B50121044801F0E3FAFFF7D7
:1033400049FFFFF73FFF012010BD00000D77000887
:103350001FB502F081FBC0B280280AD200202021D4
:10336000CDE900100B46102102900E4A084600F0ED
:1033700043FD03F097FF14234F22002100F010FEBD
:1033800009480A49407901EB800103A8FDF7B2F929
:1033900024235622002103A800F002FE04B00020DE
:1033A00010BD0000999B000829290020498B0008C6
:1033B0002DE9F04FCB4C85B004F10801A278487894
:1033C000012A02D0022A04D006E0032804D2401CBD
:1033D00001E008B1401E48700026A6708846497872
:1033E00098F802000907090E884202D9A0F10200EC
:1033F00002E003D200F1020088F80200E078DFF872
:10340000E8A24FF0800BFF287ED000274FEA0A0584
:1034100007EB470000EB0509295C99F80220891A9F
:10342000C9B22954C93926290FD205F800B0FCF7D2
:103430000DFFC11700EB917121F00301401A00014B
:1034400089F80100E088401CE0807F1CFFB2032F58
:10345000DED30021084618E00020814215D001EBA0
:1034600041035A19577800EB400202EB050C9CF817
:1034700001C0674509D1EF5CAA5C974205D902F10A
:103480000F0C674501D21032EA54401CC0B2032829
:10349000E3D3491CC9B20329DED398F8000098BBD6
:1034A000DFF84892002700BF07EB4700295C0F298F
:1034B0002DD228444078801CC1B298F80200801CAC
:1034C000C0B2814203D300F10C03994205D90C31FB
:1034D00081421CD30C30814219D8012088F80000A9
:1034E00002F0BAFA2061E078401EC0B2E070FF2816
:1034F00020D0D9F89011484699B30021C0F8901116
:10350000FF221E21002000E005E001F08FFE7F1C5D
:10351000FFB2032FC8D302F09FFA98F800200223CD
:10352000414610276AB32269821AB2F57A7F1DD309
:103530000E7026E0E088A188884207D90121217019
:103540006B49A0804872FFF7AFFA00E02670D9F807
:103550009011484631B10021C0F89011FF22FA21A4
:10356000D0E701E00121F7E70121C7E7B2F5AF7F1E
:1035700007D26278022A01D0637005E0FE226270F1
:1035800002E066700A780AB140060CD5CDE90076F3
:10359000029698F8020061780F230844C1B2554A98
:1035A000002000F029FCE078FF2866D05FF00205DB
:1035B000CDE9007605EB4502029602EB0A0163783D
:1035C00049781AF802001944C9B20F23494A00F099
:1035D00013FC6D1EEDB2EBD2DFF808910025B24668
:1035E00009F10B090826A04619F805104846891F5D
:1035F000C9B209F805108039772901D200F805B061
:1036000000275446CDE90064029498F80100394A35
:1036100000EB07101030C1B219F805000823083A72
:1036200000F0EAFB7F1CFFB2032FEBD36D1CEDB261
:10363000032DD9D34746B8F806202FA103A8FCF7DD
:10364000B7FE01235D22002103A800F0A9FC00259C
:103650004FF020080DE000BFCDE9006408EBC50085
:10366000C0B20723254A0121029400F0C5FB6D1C5E
:10367000EDB2F8788542EFD32FE0002314221946EB
:103680001FA000F0D5FC1023142200211FA000F081
:10369000CFFC2023142200211EA000F0C9FC2078BA
:1036A00028B13023142200211DA000F0C1FCE288C3
:1036B00011A103A8FCF77CFE10236022002103A8BF
:1036C00000F06EFCA2880CA103A8FCF771FE202379
:1036D0006022002103A800F063FC05B00120BDE8D2
:1036E000F08F00007C000020B02800200000214264
:1036F00034280020EB8A000825750000958B00080F
:1037000047414D454F5645522100000053636F72AB
:10371000653A00004869676873636F72653A000034
:10372000214E4557204849474853434F52452100B1
:103730002DE9F04F944C924F924E207889B004F1CD
:1037400020054FF0000AF8B1E07820B1B0076061C1
:1037500084F803A018E0206904F0ACFFC1B2687AD5
:10376000C0F1400081420ADA606910F1FF4F01D3D5
:10377000394600E0314604F04BFE606104E0C4F8D5
:1037800014A004F0B7FF2061D4E90401A14604F0BD
:103790003FFE206104F072FF7C4A687003AB07CAE9
:1037A00083E80700E06800287EDD1020764D8DF864
:1037B00014004FF0080B00248DF815B0183573482D
:1037C0006FF00F081238049015F814008DF80C00F3
:1037D000002605EB440708EBC600797808448DF80D
:1037E0000D0003A800F0B2FB761CF6B2022EF2D355
:1037F00000264FF03008797808EBC60008448DF8B1
:103800000D0003A800F0A2FB761CF6B2022EF2D344
:1038100099F8000048B19DF80C00401E8DF80C008E
:1038200015F81400401E05F8140012208DF814003D
:1038300056482438049078788DF80D0003A800F0DD
:1038400085FB787828308DF80D0003A800F07EFB0A
:1038500015F81400C93827280BD2FCF7F7FCC1175C
:1038600000EB117121F00F01401A7870902005F8DB
:103870001400641CE4B2042CA1D3454899F801104B
:103880004C464078884205D02189491C21816070CE
:10389000207BA0702089052805D9A078E16888429E
:1038A00001D101F09BFC00E025E03748203000F01A
:1038B0004DFB228937A106A8FCF77AFD01235D2282
:1038C000002106A800F06CFB002556465F464FF02D
:1038D00020080CE0CDE9007608EBC500C0B2072354
:1038E0002D4A0121029600F087FA6D1CEDB2E068C6
:1038F0008542EFDB40E0B9F80800B9F806104C4605
:10390000884207D9E0800121217124498872FFF79C
:10391000CBF801E084F804A000231422194620A06B
:1039200000F086FB10231422002120A000F080FB71
:103930002023142200211FA000F07AFB207928B157
:103940003023142200211EA000F072FB228911A155
:1039500006A8FCF72DFD10236022002106A800F028
:103960001FFBE2880BA106A8FCF722FD20236022A2
:10397000002106A800F014FB09B00120BDE8F08F7B
:103980000AD7233E8FC2753D90000020308B00087F
:103990002929002025750000958B00083428002077
:1039A00047414D454F5645522100000053636F7209
:1039B000653A00004869676873636F72653A000092
:1039C000214E4557204849474853434F524521000F
:1039D00010B500F065F903F09BF9044602F01AFFF8
:1039E000204610BD2DE9FE4302F014FF52484FF46B
:1039F0007A73524C42683C20B2FBF3F1A2420DD2E2
:103A0000B2FBF3F403FB14220A23B2FBF3F202F03D
:103A1000FF08B1FBF0F200FB12160BE0B1FBF0F275
:103A200000FB1218B1FBF0F2B2FBF0F300FB13261F
:103A30004FF46160B1FBF0F0C7B23846FFF7FCFB12
:103A4000C0EBC0010024C1EB8011DFF8F490182511
:103A5000CDE9005401EB0902132314210120029443
:103A600000F0CAF9384602F039F8C0EBC001C1EBEA
:103A70008011CDE9005401EB090213231421182011
:103A8000029400F0B9F93046FFF7D6FBC0EBC00155
:103A9000C1EB8011CDE9005401EB0902132314217D
:103AA0003C20029400F0A8F9304602F017F8C0EB71
:103AB000C001C1EB8011CDE9005401EB09021323D1
:103AC00014215320029400F097F94046FFF7B4FB0D
:103AD00000EB400101EBC0001A4E1027CDE9007445
:103AE00006EB40020B231C216820029400F084F9AD
:103AF000404601F0F3FF00EB400101EBC000CDE9CF
:103B0000007406EB40020B231C217420029400F089
:103B100073F9CDE9005406230B4A14213120029495
:103B200000F06AF903F0BEFB00233022194600F0D2
:103B300037FA0120BDE8FE83D826002080EE36004B
:103B400029980008639A00083F9B000810B5134CA1
:103B50006088A0B101F080FF61686288411A9142DB
:103B60000BD36060207880F001002070FDF7D8FB57
:103B7000FF221421207801F059FB012010BD012003
:103B8000FDF7CEFBFF226421012001F04FFBFF2255
:103B90006421002001F04AFB002010BDF426002023
:103BA000094810B5007802F0EDFE1C2340220021E8
:103BB00006A000F0F5F928234022002105A000F01E
:103BC000EFF9002010BD0000042700204375626556
:103BD00020000000526F746174696F6E0000000075
:103BE000064810B5007802F0CDFE03F0BBFD03F0EF
:103BF00053FE02F0D7FD002010BD00001427002066
:103C000010B500F031FA00F081F803F033F902F05A
:103C1000C9FD002010BD000010B500232822194660
:103C200005A000F0BDF900220C23114604A000F00D
:103C3000B7F9002010BD00006D6573736167650002
:103C4000556E646576656C6F706564206D6F647524
:103C50006C65000010B503F0B5F9FFF77BF902F0D1
:103C60001DFE002010BD10B508211E2000F0A4FA92
:103C7000FEF740FE02F0F8FC02F0CCFD002010BD83
:103C800010B502F035FF002010BD10B502F056FD52
:103C900003F068FD03F000FE02F084FD002010BD7B
:103CA00010B5114C11498AB0607901EB800107A869
:103CB000FCF720FDE0790E4901EB800108A8FCF734
:103CC00019FD217A08A8CDE90001A37907AA09A165
:103CD00002A8FCF76DFB00230C22194602A800F095
:103CE0005FF90AB010BD000029290020498B0008A7
:103CF000658B000825732025303268687520257390
:103D000020323025303268687500000010B5244C30
:103D1000244988B0607901EB800105A8FCF7EAFC32
:103D2000E079214901EB800106A8FCF7E3FC05AA34
:103D30001EA16846FCF73CFB0C2344220021684688
:103D400000F02EF9A2791AA16846FCF731FB152381
:103D500046220021684600F023F906AA13A168460E
:103D6000FCF726FB1D2344220021684600F018F9C9
:103D700011A16846FCF71CFB26234022002168465F
:103D800000F00EF9227A0AA16846FCF711FB2623FF
:103D90004C220021684600F003F908B010BD000075
:103DA00029290020498B0008658B00082573000035
:103DB00025303268687500003230000010B586B0DA
:103DC000202218216846FCF74FFD0A4C6068FCF77A
:103DD000B5FC0921A1EB5000694608446168FCF775
:103DE00089FC00231A461946684600F0D9F806B047
:103DF00010BD0000FC2800202DE9FF4F87B01F46B2
:103E00000D46149CFEF7A6FD2844169900F0FF0904
:103E1000A9EB010000F0FF0BE00806900BF0070093
:103E2000029009EB0400C0B20026019085E000BFBB
:103E30000BEBC600C4B204F1080000F0FF0A1698AC
:103E400080B1CA4577D3BAF1400F74D80198844243
:103E500071D8FF2000904C4507D2A9EB040188409F
:103E6000C0B200E0FF20009007E00198824504D92D
:103E7000AAEB0001FF20C840F5E7E008C00104906C
:103E8000099806FB070003900298E8B9402C1BD262
:103E90000024DFF8B48014E007982044C5B2802DD8
:103EA0000DD203981599204402F052F80099084069
:103EB00004996A18D8F800108B5C03438B54641C77
:103EC000E4B2BC42E8D336E04FEADA00C001002594
:103ED00005902EE00798284400F0FF08B8F1800F05
:103EE00025D203981599284402F032F80099084029
:103EF000402C0BD21449049ADDF808C009684244EA
:103F000000FA0CFC8B5C43EA0C038B54BAF1400FB3
:103F10000DD2059ADDF808C008EB02010A4ACCF17F
:103F2000080C20FA0CF01268535C034353546D1CC8
:103F3000EDB2BD42CED3761CF6B206988642FFF4AF
:103F400077AF0BB0BDE8F08F002800200EB5417AA6
:103F5000C37A827A8DE80E00037A4178426800784D
:103F6000FFF74AFF0EBD0000C90800EBC11003496E
:103F7000096808441146FCF77FBC000000280020B7
:103F800001F0F8BE0EB500204021CDE900100B462F
:103F9000024A01460290FFF72FFF0EBD06010020E6
:103FA0002DE9FE4F00249A4693468946064625464B
:103FB000DFF87480DF082FE005EB45020BEB4201D0
:103FC0000823009300222038CCB2CDE90192C0B280
:103FD000164900EB80004218052351462046FFF7A2
:103FE0000BFFB9F1000F14D054B1611EC9B2D8F85B
:103FF000000001EBC7114FF0FF3242547B2C08D276
:10400000601DC0B2D8F8001000EBC7104FF0FF32AF
:104010000A546D1CEDB2761C3078002801D0782C43
:10402000CAD3BDE8FE8F0000002800204496000897
:104030002DE9F0411D46164688460446FCF77EFBF6
:10404000C0B2401CFCF751F907462146FCF752FB71
:104050002B46324641463846FFF7A2FF3846BDE8B8
:10406000F041FCF771B9000030B58DB0002108A80F
:1040700000F024FD1849DDE9090509780B9C19B108
:10408000FFF780FF0DB030BD00212822CDE90021CF
:10409000C0B2029100EBC00101EB00100F492823D0
:1040A00001EBC00208210C20FFF7A6FE23462A469A
:1040B0000BA103A8FCF77CF903A8FCF73FFBC0F1B8
:1040C000080000EB40000930C2B23423002103A8ED
:1040D000FFF766FFD6E700002D270020060300202B
:1040E000256460437E2564604300000010B50648E7
:1040F0000024064B0470064A0649074802F0F8F807
:104100000648846110BD0000FC0000200551000835
:10411000AD57000801560008D1530008FC280020C4
:10412000044801788078401E814201D10120704707
:1041300000207047FC2800202DE9FE4F0446037A3A
:10414000407AE67A03FB00F1C1F3C707616894F88F
:104150000DC006FB0712A57A94F8009094F8018030
:104160000021BCF1000F07D035B1FF2D04D0761E21
:10417000F6B2FF2E04D004E0CDE90001029115E073
:10418000267BA5EB000CACF1040C8A460CF0FF0C6E
:104190008DE8011441464846FFF72EFE617ACDE9CD
:1041A000001A02956068237A06FB070241464846DA
:1041B000FFF722FEBDE8FE8F2DE9FF47384B0F4683
:1041C0005A1F0446511E481E01F0A8FC0B208DF812
:1041D00008001020DFF8C8A08DF809003148AAF1C6
:1041E000080A8DF8017001909AF801008DF80A0014
:1041F0002D4D04F121008DF80000A878FFF71CF880
:10420000274E4FF005088DF80B008DF80C80B07824
:104210008DF80D006846FFF78FFF04F12D008DF833
:104220000000A87801F05AFC4FF009098DF80B0046
:104230008DF80C90F0788DF80D006846FFF77CFF44
:104240008DF80040E878FEF7F7FF8DF80B008DF849
:104250000C8030788DF80D006846FFF76DFF04F193
:104260000C008DF80000E87801F038FC8DF80B00A8
:104270008DF80C9070788DF80D006846FFF75CFFA4
:104280002878322807D23F1D1A34FBB2E2B200214F
:1042900006A0FFF785FE9AF8030004B0BDE8F0879A
:1042A00060270020639A0008292900203A000000B6
:1042B00004490A885206FCD5024AC1B2121D118077
:1042C000704700000038014010B5044CA068002879
:1042D00003D0FCF739F80020A06010BD142700209F
:1042E0002DE9F04FAF4D85B0A888A0280BD2687893
:1042F000FF2808D0002083462878AC78012804D015
:10430000022804D005E00120F5E7E41C00E0E41EEB
:10431000E4B200202870FA2C01D9002402E0742CA9
:1043200000D9742400200821CDE9001002900C234C
:104330009D4A38212046FFF75FFDAC709B4CA94693
:10434000BBF1000F09D1A168206804F061F820607A
:10435000E168606804F05CF8606000200090D4E9D7
:1043600000A0A04604F0A6F90027C6B23D460024EE
:10437000D9F80800C05D40BBA80004F0D3F951464D
:1043800004F0E4F921D8042000EB850004F0CAF918
:10439000514604F05AFA18D2082000EB8400B042CB
:1043A00013D80C2000EB8400B0420ED9FF2232213A
:1043B000012000F03BFFD9F808200121D1550091E0
:1043C000B9F80410491CA9F804107F1C641CE4B25D
:1043D000FFB2052CCCD36D1CEDB2202DC7D3744891
:1043E00082450BDD734A924500DD0020C8F80000CD
:1043F000D8F8081081F00041C8F808101AF1FF4FF2
:1044000008D30021C8F80010D8F8081081F0004146
:10441000C8F808100025BBF1000F2ED13C2E2CD37C
:10442000F02E2AD24C4699F8020004F07BF951464E
:1044300004F08CF921D8A0780C3004F073F95146BF
:1044400004F003FA19D85C48C8F80400D8F80C0046
:1044500001254446B0F5000F02DB80F00040E0602B
:10446000FBF7F4FE04F046F96FF01D0104F0F3FAD7
:104470004FF07E5104F01AFAA0605BEA05001AD1F1
:104480003E2E02D8009880B915E0F02E03D9002105
:10449000C8F8041009E0009838B94849C8F8041071
:1044A00099F80110491E89F80110D8F80C1081F014
:1044B0000041C8F80C104446D8F8040004F0FAF89B
:1044C000C5B2206804F0F6F84FF0000B364A4FF002
:1044D000080AC0B2CDE900AB0223521F2946CDF82D
:1044E00008B0FFF789FC00263546C8460024AF0017
:1044F0004FEA0B09D8F80800805D60B9CDE900A942
:104500000AEB8400284AC1B2F8B20323D21ECDF8C8
:104510000890FFF771FC761C641CE4B2F6B2052C1F
:10452000E8D36D1CEDB2202DE0D34446B8F804204A
:1045300023A103A8FBF73CFF00231A46194603A852
:10454000FFF72EFD6078FF2816D000254E4657460F
:104550004FF068080DE000BFCDE9007608EBC5001C
:10456000C0B20723174A01210296FFF745FC6D1CD4
:10457000EDB260788542EFD3A088A02805D3202330
:104580003222002110A0FFF753FD6078FF2805D1EB
:104590002023222200210EA0FFF74AFD05B00120B2
:1045A000BDE8F08F70000020D78A0008A028002006
:1045B0000000FC42000070430000704200007C429A
:1045C00025750000958B000857494E21000000001A
:1045D00047414D454F5645522100000070B502211C
:1045E000084601F0A9FC01F039F901F035FAFCF7B1
:1045F00063F81048FEF7F4FD0F4A10491048FEF723
:104600000DFC104C1048002525704FF085410160CD
:104610000E4941604FF03F4181600D49C160012169
:10462000A020FBF74EFEA06003206070A5803A201A
:10463000A07070BDE1420008A52B0008D92C00082D
:10464000152D000870000020A0280020000058420E
:104650009A9919BF70B50221084601F06DFC134804
:10466000134C407AA08001F0F9F801F0F5F9FCF75D
:1046700023F81048FEF7B4FD0F4A10491048FEF722
:10468000CDFB00200F49802500EB400206015318A6
:10469000401C5E709870C0B28D540328F4D3002083
:1046A000E080A0700320E07070BD0000342800207E
:1046B0007C000020B1330008952B0008D92B00089E
:1046C000552D0008B028002010B50221084601F041
:1046D00033FC01F0C3F81448144C4021807AE08088
:1046E0001348FCF7C9F801F0B7F9FBF7E5FF1148EB
:1046F000FEF776FD104A11491148FEF78FFB0021A5
:10470000084604F1180200BF02F810102A31401CBC
:10471000C0B2C9B20428F7D3002020812071607193
:1047200020700420E06010BD34280020900000209C
:10473000B928002031370008052C0008892B000813
:10474000E92C00080720704708480078022803D0A9
:10475000032809D00120704705488079012801D03D
:10476000172070470C2070473B207047FC0000204A
:10477000342800200D480078082815D2DFE800F022
:1047800014040614040E1012012070470848007823
:10479000012801D0172070470C2070471F20704758
:1047A0000B207047632070473B207047FC000020BF
:1047B000E82600202DE9FE4F244CFF264FF6FF7718
:1047C000E0788DF8070020798DF80800002101A815
:1047D00002F042FDA0786279401CC1B29DF807004A
:1047E00002F0BAFD80460624DFF864A027E069469F
:1047F0002046FDF763FF9DF8020000061FD5062541
:104800004FF001099DF8021009FA05F0014213D09A
:104810009DF801109DF800002A4602F09DFDB0EBC6
:10482000080002D542F25F71084481B2B94203D256
:1048300087B226468AF802506D1EEDB2E2D2641E9F
:10484000E4B2D4D28AF80160BDE8FE8F29290020A5
:10485000140000202DE9FC4105460020134E009075
:104860000190705D3146124F4C1943280CD160788D
:104870003A2819D1A0788DF80000E0788DF8010071
:104880006846FBF70BFF3870705D4D280CD16078DF
:104890003A2809D1A0788DF80000E0788DF8010061
:1048A0006846FBF7FBFE7870BDE8FC81C42D002054
:1048B000542900200148007801F02ABB402700203D
:1048C0002DE9F04100240D4D0D4E20270FE0285D0D
:1048D00020385F2800D32F55204600F041F82046AD
:1048E000FFF7B8FF204600F0F5F8641CE4B230781A
:1048F0008442ECD30020B060BDE8F081C42D0020DC
:104900004827002070B5154B0546A3F1100400227E
:10491000E47998691EE000BFC2EBC20603EB86068D
:10492000B669AE4214D141B1641EA24204D0C2EBBA
:10493000C20003EB8000406B70BD32B1C2EBC2001D
:1049400003EB800050F8040C70BDC4EBC400F7E723
:10495000521CD2B2A242DFD370BD000068270020F3
:1049600038B544490A5C642A74D10C1860783A2836
:104970007FD120798DF8000060798DF801006846BC
:10498000FBF78CFE3C4D2872E0798DF80000207A10
:104990008DF801006846FBF781FE401EE871A07AA1
:1049A0008DF80000E07A8DF801006846FBF776FE8E
:1049B000A871607B8DF80000A07B8DF8010068462F
:1049C000FBF76CFEE870207C8DF80000607C8DF8B1
:1049D00001006846FBF762FEA870E07C8DF80000DD
:1049E000207D8DF801006846FBF758FE6978C0B25B
:1049F000411A0A2900DD6870A07D8DF80000E07D75
:104A00008DF80100207E8DF802001CA16846FBF79E
:104A1000A7FF012410B31AA16846FBF7A1FFD0B18C
:104A200018A16846FBF79CFFB8B117A16846FBF7D1
:104A300097FFA0B115A16846FBF792FF88B114A1BA
:104A40006846FBF78DFF70B112A16846FBF788FF3F
:104A500058B10CE00DE06C7109E0022006E0032083
:104A600004E0042002E0052000E0062068710A4806
:104A7000446038BDC42D0020292900204D6F6E00F0
:104A80005475650057656400546875004672690086
:104A90005361740053756E00482700200349C0EB32
:104AA000C00001EB8000806970470000682700208B
:104AB00001490520C871704758270020044A10B5E5
:104AC00002EB01110C311EC980E81E0010BD000070
:104AD000542900202DE9F8432D49002700970A5C4E
:104AE0003C46572A52D10D1868783A284ED15020AA
:104AF000FBF7FBFB06465021FBF7BEFEA91C304628
:104B0000FBF7F8FDDFF88C80301908EB07150288F9
:104B1000E9680A8080788870E868FBF70FFE024633
:104B20001DA0E968FBF738FCE41C30190188ADF8DA
:104B3000001080788DF802006846FBF7AFFDA41CDA
:104B40006861305D04F101047E28FAD130190188D2
:104B5000ADF8001080788DF802006846FBF79EFDE6
:104B6000A41CA86100E0641C305D5D28FBD105F148
:104B70000C00641C02F052FF297C0DA0FBF70CFC1A
:104B80007F1C052FC0DB3046FBF7DEFBBDE8F8835A
:104B9000C42D002054290020776561746865723A3D
:104BA0002573236C656E203D2025640D0A000000EE
:104BB000776561746865725F747970653A25640D14
:104BC0000A000000704700003EB5154C0021E07857
:104BD0008DF8070020798DF8080001A802F03CFB51
:104BE0006846FDF777FDC0B162799DF8021001209B
:104BF00000FA02F2114210D09DF800109DF8072033
:104C000091420AD19DF80110A278914205D16178B4
:104C100009B90449C87001203EBD00203EBD000016
:104C2000292900201400002010B586B0044606286B
:104C300019D20F48007818B10E480078A04204D06D
:104C400005A92046FDF73AFD03E00B48D0F8020025
:104C5000059005A9684600F0C3FD084B002269468F
:104C6000204601F061FB06B0BDE81040FDF714BD21
:104C7000FC000020FC2800203C000020BD5F000854
:104C800000B54D4987B0097800294AD000224B4B26
:104C90004BA1104601F048FB484B002248A10120DF
:104CA00001F042FB454B002245A1022001F03CFBF4
:104CB000424B002242A1032001F036FB3F4B002271
:104CC0003FA1042001F030FB3C4B00223CA1052019
:104CD00001F02AFB00231A463AA1184601F080FB96
:104CE00000231A463BA1012001F07AFB00231A465B
:104CF0003DA1022001F074FB00231A463FA10320CE
:104D000001F06EFB00231A4641A1042001F068FB6C
:104D1000002307B01A4643A105205DF804EB01F01B
:104D20005FBBB0B101281FD0022829D0042839D098
:104D300000231A4640A1032001F052FB00231A462B
:104D400042A1042001F04CFB07B05DF804EBFDF735
:104D5000A3BC0123172241A16846FBF729FB0023CE
:104D60001A466946184619E0FDF7DEFE024641A1E3
:104D70006846FBF71DFB0022424B694601200DE00F
:104D80004148407908B1592200E04E223FA16846CF
:104D9000FBF70EFB404B00226946022001F0C4FAEB
:104DA00007B000BD07B00022044B3CA104205DF811
:104DB00004EB01F0B9BA000050000020B56500080E
:104DC0002000000048656C6C6F20757365722121AE
:104DD00021000000546869732070726F64756374F9
:104DE00020776173206D6F00696669656420667263
:104DF0006F6D204769744875622E20002020204E78
:104E000057415443482D57415443485820202000CF
:104E100048616E677A686F752C204368696E612CF3
:104E2000206120006D61737465722077686F206C5B
:104E30006F76652053692E004657202020202020C1
:104E4000332E302054323032310000004175746806
:104E50006572202020202048616E000054656D702E
:104E60006572617475726520256868642E256868AE
:104E700075430000426174746572792020202025FA
:104E8000756D5600C92A00083428002053686F77D2
:104E90002046505325396300C96500084175746880
:104EA0006572202020202048616E000070B500202F
:104EB00001240B4B02460BA101F092FA02250C4B88
:104EC00000220CA1204601F08BFA0D4B00220DA10F
:104ED000284601F085FABDE87040FDF7DDBB000013
:104EE000DD450008427265616B6F7574000000005B
:104EF0005546000843617220446F646765000000F6
:104F0000C9460008466C61707079205468696E6704
:104F10000000000010B501F079FABDE81040FDF77F
:104F2000BBBB000070B5002001241B4B1B4A1CA119
:104F300001F056FA02251C4B1C4A1DA1204601F027
:104F40004FFA03241D4B1E4A1EA1284601F048FAC1
:104F500004251F4B1F4A20A1204601F041FA0524D9
:104F6000204B214A21A1284601F03AFA0625214B7F
:104F7000214A22A1204601F033FA234B234A24A1DF
:104F8000284601F02DFAFFF7DDFBBDE87040234B0A
:104F9000234A24A101F024BAE1520008999B000899
:104FA000416C61726D73000085730008199D0008E3
:104FB000466C6173686C696768740000B16C0008C6
:104FC000999C000853746F707761746368000000E7
:104FD000ED7300089C8B000854756E65206D616B45
:104FE00065720000315400089C8D000847616D65B2
:104FF00073000000F55C0008999D0008426C75651F
:10500000746F6F746800000019560008199E00083C
:1050100053657474696E6773000000005D58000882
:10502000199F0008457869740000000010B5114B05
:10503000114A12A1002001F0D3F9134B134A14A115
:10504000012001F0CDF9144B144A15A1022001F002
:10505000C7F9154B154A16A1032001F0C1F9164BEB
:10506000164A17A1042001F0BBF9BDE81040FDF776
:1050700013BB0000155700081C8C000854696D65AF
:105080002026206461746500695600089C8C000825
:10509000536C656570000000C55600081C8D000843
:1050A000536F756E64000000855300081C9500085E
:1050B000446973706C6179002D530008999E000853
:1050C000446961676E6F73746963730010B5054B53
:1050D000054A06A1002001F083F9BDE81040FDF764
:1050E000DBBA0000DD6500089C95000854696D6519
:1050F0006F75740010B501F0E7F9BDE81040FDF7D9
:10510000CBBA000030B51E4C1E4987B0E07901AD26
:1051100001EB800106A8FBF7EDFA207A0090A27956
:1051200006AB19A12846FBF743F91D4B002201A944
:10513000012001F0F9F8217902A8202901D00C22E0
:1051400000E01822A378CDE90031E37815A1FBF740
:105150002FF91B4B002202A9032001F0E5F81948A2
:10516000407808B118A100E019A11B4B00220520CE
:1051700001F036F907B0BDE83040FDF78DBA000008
:1051800032290020658B00082020202530326868F5
:105190007520257320323025303268687500000094
:1051A000716100082020202568687568722025300C
:1051B000326868753A2530326868752563000000EA
:1051C000D9610008E826002053617665640000007C
:1051D0005361766500000000615F0008F0B5124978
:1051E000002001F120054A792B786E7801F118042E
:1051F00013F1080314F81050AB4209D304EB400537
:105200006D78AF1DBE4202D92235AE4200D30122D5
:10521000401C0428EEDB4A71002A04D000204871AB
:10522000C868401EC860F0BD90000020084A10B554
:105230001279002A07D038B1012804D1054C217019
:1052400000F02AFD607010BD024CA41EF7E70000BC
:1052500034280020062800200448007820B903489C
:10526000801C0078002800D001207047042800200E
:1052700038B501210420FCF7D9F93020ADF8000041
:1052800010208DF803000320054C8DF802006946BC
:105290002046FBF757FF30212046FBF7ADFF38BD16
:1052A0000008014010B504210448FDF7D5F9034872
:1052B0000521BDE81040801CFDF7CEB90428002070
:1052C000034605484370817002700448C269002A91
:1052D00001D0084610477047F4000020FC28002049
:1052E00010B50AA20021062001F00CF80A4B0B4A67
:1052F0000B490C4800F0FCFFAFF21B010A4801F01B
:105300002FF9BDE810400020FDF717BC3C20414CB0
:1053100041524D53203E0000294C0008015E000818
:1053200011550008555D00084400002010B500F03C
:1053300015FEFDF7D7FB0AA20021052000F0E2FFD1
:105340000B4B0C4A0C490D4800F0D2FFAFF2230181
:105350000B4801F005F9BDE810400020FDF7EDBB5A
:105360003C20444941474E4F5354494353203E004B
:10537000814C0008015E000829550008555D0008B1
:105380005400002010B50AA20121052000F0BAFF48
:105390000A4B0B4A0B490C4800F0AAFFAFF21B0165
:1053A0000A4801F0DDF8BDE810400020FDF7C5BB5C
:1053B0003C20444953504C4159203E00154F0008B1
:1053C000015E000865550008555D0008E4000020F6
:1053D00010B500F0BFFC0648007818B1022801D0D3
:1053E000042803D1BDE8104000F0B4BC10BD00009B
:1053F000FC28002008B50A48007870B909480AA1BD
:10540000007800EB8000C2B26846FAF7D1FF28238B
:10541000382200216846FEF7C3FD002008BD0000C9
:10542000FC280020342800202568687553000000FF
:1054300010B5032009A2002100F064FF0A4B0B4ABB
:105440000B490C4800F054FFAFF21B010A4801F071
:1054500087F8BDE810400020FDF76FBB3C204741B6
:105460004D4553203E000000AD4E0008015E00088F
:105470004D550008555D0008DC00002010B50022E5
:1054800004491046FDF7CAFCBDE810400248FDF78C
:1054900051BB0000055A00089D54000810B50E4885
:1054A000FDF79EFE0D4A0E490E48FDF7B7FCFFF7CB
:1054B00049F90DA2012100F025FF0F4B0F4A1049B9
:1054C000104800F015FF1049104801F049F8BDE8F8
:1054D00010400020FDF731BB8D58000879580008B6
:1054E000055A0008455A00083C204D41494E204DC0
:1054F000454E55203E000000254F0008015E000883
:1055000089550008555D00089D540008EC000020F6
:1055100010B5044801F012F8FEF702FEBDE8104095
:10552000FDF78EBE4400002010B5FEF7F9FD08B16E
:10553000FDF7BAFA044801F001F8FEF7F1FDBDE805
:105540001040FDF77DBE00005400002010B5044857
:1055500000F0F4FFBDE810400120FDF771BE00002F
:10556000DC00002010B5FEF7DBFD08B1FDF79CFA6A
:10557000044800F0E3FFFEF7D3FDBDE81040FDF75F
:105580005FBE0000E400002010B5044800F0D6FF24
:10559000BDE810400120FDF753BE0000EC000020E4
:1055A00010B5044800F0CAFFBDE810400120FDF727
:1055B00047BE0000C026002010B5FEF7B1FD040074
:1055C00001D0FDF771FA044800F0B8FF2046BDE8AD
:1055D0001040FDF735BE0000C826002010B5FEF7CC
:1055E0009FFD040001D0FDF75FFA044800F0A6FF1C
:1055F0002046BDE81040FDF723BE0000D026002065
:1056000010B5044800F09AFFFEF78AFDBDE810408F
:10561000FDF716BEEC26002010B50AA201210520D8
:1056200000F070FE0B4B0C4A0C490D4800F060FE78
:10563000AFF21B010B4800F093FFBDE810400020C3
:10564000FDF77BBA3C2053455454494E4753203E06
:10565000000000002D500008015E0008A155000860
:10566000555D0008C026002010B50CA201210220C3
:1056700000F048FE0C4B0D4A0D490E4800F038FE74
:105680000E490D488861AFF21F010D4800F068FF18
:10569000BDE810400020FDF750BA00003C20534CFC
:1056A000454550203E000000CD500008015E000836
:1056B000B9550008555D0008F5530008FC28002086
:1056C000C826002010B50BA20121032000F01AFE0D
:1056D0000B4B0C4A0C490D4800F00AFE00F0F4FE9A
:1056E000AFF21F010A4800F03BFFBDE81040002068
:1056F000FDF723BA3C20534F554E44203E00000096
:10570000F5500008015E0008DD550008555D0008F1
:10571000D0260020154910B513480A6802604A686F
:105720004260097A0172124813A28179114801700E
:1057300000214170062000F0E5FD134B134A144987
:10574000144800F0D5FD14A0FAF726FEAFF23B0195
:105750000848001D00F004FF134901200870BDE84F
:1057600010400020FDF7E9B9322900202929002046
:1057700034280020E82600203C2054494D452026AE
:105780002044415445203E0005510008AD57000813
:1057900001560008D15300086D54696D6544617469
:1057A000654F70656E0D0A00FC28002010B500F0F2
:1057B00027FB0648007818B1022801D0042803D13D
:1057C000BDE8104000F01CBB10BD0000FC2800200C
:1057D000FDF760FB0A20FDF7C1FCFDF741FBF9E78F
:1057E000FEB5054608788DF8070020200C468DF898
:1057F0000800002101A801F02FFD9DF8080000908D
:1058000063789DF807200FA1681CFAF7D1FDA078F6
:10581000000601D5802000E02E202870002028748A
:1058200002460D490120A37800FA02F6334201D066
:105830008B5C00E02D23AE18521CD2B27372072A83
:10584000F1D3FEBD202530326868753A25303268C4
:105850006875256320000000418B000810B5FDF736
:1058600059FB04480021C1700162BDE81040FDF7FA
:10587000A9BC0000FC280020034810B54069FDF7D2
:10588000E7FC012010BD0000FC2800202DE9F047B6
:10589000DFF88080002698F8080038B100F03EF864
:1058A0000646D8F8180080B376BB29E0FEF786FAE2
:1058B00098F8021098F80150072900D907212944C7
:1058C000CFB22C464FF0080915E0611B09EBC1006F
:1058D00000F0FF0A98F80000A04205D100225346CC
:1058E00011460DA0FEF75CFB524621460220FFF751
:1058F000E7FC641CE4B2BC42E7D3D8F8180020B13E
:10590000D8F81800804708B1012600E0002630468C
:10591000BDE8F087FC2800203E0000002DE9FE4392
:10592000DFF8CC804021002598F80000A0EB800033
:1059300001EB00122F483049807898B14868012463
:10594000824213DDA2EB00034FEAE37603EB96738A
:1059500004EBA303DBB2102B00D9102318444860DA
:10596000824201DC4A6011E001250FE00EDA831A61
:10597000DE1703EB967304EBA303DBB2102B00D905
:105980001023C01A48608242EEDBEBE74C68103C03
:10599000FEF714FA00260827CDE900762423174ADB
:1059A0000E212E200296FEF727FACDE90076242359
:1059B000134A2A212E200296FEF71EFA47460BE0D4
:1059C00004F11F009F2804D2E2B231460020FFF705
:1059D00077FC761CF6B23034B878B042F0D839781B
:1059E00000220120FFF76CFC2846BDE8FE83000082
:1059F000FC28002034280020F4000020519B0008DF
:105A0000759B000810B502220C490320FDF7FCF934
:105A1000FEF75AFCFCF78EFF10B1FCF791FF28B19E
:105A20000748C17821B1006900B18047012010BD4D
:105A30000121C170FFF722FDF8E70000212F0008C7
:105A4000FC280020034810B5C068FDF701FC0120C8
:105A500010BD0000FC2800200248007800EB800008
:105A600040007047292900207FB54FF4E060FBF724
:105A70003FFC1C208DF80C0000248DF80D40032005
:105A80008DF80E0001208DF80F0003A8FBF7FEFB38
:105A900001210846FBF7B2FD4FF080452846FCF790
:105AA00033F8ADF8064042F20F70ADF80400ADF8DF
:105AB00002404720ADF8000069462846FCF7F0F8A0
:105AC00001212846FCF710F8012211462846FCF770
:105AD000DFF801212846FCF70DF87FBD0A21B0FB55
